:200000000C9452040C9499040C9499040C9499040C9499040C9499040C9499040C9499043F
:200020000C9499040C9499040C941A300C94ED300C944E260C9499040C9499040C949904D4
:200040000C9499040C9499040C9499040C9499040C9499040C9499260C9499040C94990496
:200060000C9499040C9499040C9499040C9499040C9499040C9499040C9499040C94990498
:200080000C9499040C9499040C9499040C9499040C9499040C9499040C9499040C94990478
:2000A0000C9499040C9499040C9499040102E4620103E46E006A6F6E6C6F727573736F008C
:2000C0006A6F6E6C6F727573736F40676D61696C2E636F6D0014001A0008001500170000A9
:2000E0000000001C0018000C001200130004001600070009000A00000000000B000D000E41
:20010000000F0033001D001B00060019000500F400F5001100100036003700380029002B3E
:2001200000E300E1002C00025101512A0034712D743400280014021A0208021502170200F2
:200140000000001C0218020C021202130204021602070209020A02000000000B020D020EC8
:20016000020F0233021D021B02060219020502F400F5001102100236023702380229002BC4
:2001800000E300E1002C00035101002A0034712D743402280027001E001F002000210000A7
:2001A0000000002F002602270230003102220023002400250026000000000035002F023012
:2001C00002350231001E021F02200221022202F400F5002302240225022E022E0029002BFE
:2001E00000E300E1002C00010004512A0034712D74340028003A003B003C003D00220000DD
:200200000000002F002602270230004B003F004000410042004300000000005000510052AB
:20022000004F004E0044004500680069006A00F400F5002302240225022E022E0029002B50
:2002400000E300E1002C00025104512A0034712D743400280027001E001F00200021000095
:200260000000002F002602270230004B0022002300240025002600000000005000510052DC
:20028000004F004E001E021F02200221022202F400F500365D240225022E022E0029002B9C
:2002A00000E300E1002C0003510451055134712D7434002800345D355D1F0020002100002A
:2002C0000000002F002602270230004B00220023002400250026000000000050005100527C
:2002E000004F004E001E021F02200221022202F400F5002302240225022E022E0029002BAA
:2003000000E300E1002C0003580458055834712D74340028000900180006000E00210000E1
:200320000000002F002602270230004B00220023002400250026000000000050005100521B
:20034000004F004E001E021F02200221022202F400F5002302240225022E022E0029002B49
:2003600000E300E1002C00035804582A0034712D7434002800230414040504F603E703D807
:2003800003C903BA03AB039C038D03000000010000FF01012BFFFFFF0000000000010000C9
:2003A0000001012BFFFFFF000000000001AAFFFF010100FFFFFF00000000000180FFFF01EB
:2003C00001000000FF0000000000012BFFFF0101000000FF0000000000010000000101559A
:2003E000FFFFFF000000000001000000010100FFFFFF000000000001AAFFFF010100000055
:20040000FF00000000000155FFFF0101000000FF00000000000100FFFF0101000000FF0088
:2004200000000000010000000101000000FF0000000000000000000000002A2B280000003D
:200440000000000000000000000000000029000000002C1E3420212224342627252E362D37
:200460003738271E1F202122232425263333362E37381F0405060708090A0B0C0D0E0F10DA
:200480001112131415161718191A1B1C1D2F3130232D350405060708090A0B0C0D0E0F109A
:2004A0001112131415161718191A1B1C1D2F3130354C000000000000000000000000000000
:2004C0000000000000007E0F00D4FFFFFFC70000007832190A00047F3F1F643214643214F5
:2004E000783C1E1E140A052223252628292A2C2D2F3032333536383A3B3D3E4042434547DD
:20050000494A4C4E5051535557595A5C5E6062646668696B6D6F71737577797B7D7F818339
:200520008587898A8C8E90929496989A9C9E9FA1A3A5A7A8AAACAEAFB1B3B4B6B8B9BBBC8A
:20054000BEBFC1C2C3C5C6C7C9CACBCCCDCED0D1D2D2D3D4D5D6D7D7D8D9D9DADADBDBDBAD
:20056000DCDCDCDCDCDDDDDDDDDCDCDCDCDCDBDBDBDADAD9D9D8D7D7D6D5D4D3D2D2D1D05B
:20058000CECDCCCBCAC9C7C6C5C3C2C1BFBEBCBBB9B8B6B4B3B1AFAEACAAA8A7A5A3A19F41
:2005A0009E9C9A98969492908E8C8A89878583817F7D7B79777573716F6D6B696866646242
:2005C000605E5C5A5957555351504E4C4A4947454342403E3D3B3A3836353332302F2D2C80
:2005E0002A292826252322FFAA7F5540000101010101010101010202020202020202020315
:20060000030303030303030404040404040405050505050606060606070707070708080837
:2006200008090909090A0A0A0B0B0B0C0C0C0D0D0D0E0E0E0F0F0F10101111111212131310
:200640001414151516161717181819191A1A1B1B1C1D1D1E1E1F2020212222232424252616
:2006600026272829292A2B2C2D2D2E2F30313232333435363738393A3B3C3D3E3F4041420E
:20068000434445464748494A4C4D4E4F50515354555658595A5B5D5E5F61626465666869BA
:2006A0006B6C6D6F7072737577787A7B7D7E8082838587888A8C8E8F91939596989A9C9ED7
:2006C000A0A2A3A5A7A9ABADAFB1B3B5B7BABCBEC0C2C4C6C9CBCDCFD1D4D6D8DBDDDFE22D
:2006E000E4E7E9EBEEF0F3F5F8FAFDFF0E03410074007200650075007300000016034B00BE
:200700006500790062006F0061007200640069006F0000000403090409025B00030100A0FD
:20072000FA0904000001030101000921110100012240000705810308000A09040100010359
:2007400000000009211101000122BC000705820320000A0904020002030000000921110173
:200760000001222200070583032000010705030320000112011001000000080912032300E1
:2007800000010200010631FF0974A1010975150026FF009520750881020976150026FF00DA
:2007A000952075089102C005010902A10185020901A100050919012905150025019505752F
:2007C0000181029501750381010501093009311581257F95027508810609381581257F95A7
:2007E0000175088106050C0A38021581257F950175088106C0C005010980A1018503190178
:200800002AB700150126B700950175108100C0050C0901A101850419012AA002150126A0A0
:2008200002950175108100C005010906A1018505050719E029E71500250195087501810233
:200840000507190029EF1500250195F075018102050819012905950575019102950175039C
:200860009101C005010906A101050719E029E71500250195087501810295017508810105EF
:2008800007190029FF150026FF009506750881000508190129059505750191029501750337
:2008A0009101C00011241FBECFEFDAE0DEBFCDBF04B603FE27C080911D0390911E03A091ED
:2008C0001F03B09120038730904BA740B04BD1F410921D0310921E0310921F03109220034B
:2008E00014BE84B7877F84BF0FB6F894A89580916000886180936000109260000FBEE0E0B8
:20090000F8E3099511E0A0E0B1E0E2E7F9E602C005900D92AC3DB107D9F723E0ACEDB1E020
:2009200001C01D92AD31B207E1F70E94632D0C942E340C940000E9EAF2E080818360808378
:2009400085E793E09093FC018093FB0161E080E00C947E11FF920F931F93CF93DF93F62EDC
:20096000072F182FD92FC0E04C2F6F2D702F812F9D2F0E949321682F8C2F0E947E11CF5F19
:20098000C63091F76F2D702F812F9D2FDF91CF911F910F91FF9008959C01FB0125338DE573
:2009A000380769F026338DE5380791F024333D4569F48281882351F085EB90E005C0828147
:2009C000882321F080EC90E00E94610681E0089582818823D9F38CEA90E0F6CFCF93DF937F
:2009E0009C01FB019A9581159F4160F5E901CC27D170D901AA27B270B90166277470A901A4
:200A00004427587034FF10C080E1CD2B09F480E0AB2B09F08062672B09F08064452B09F061
:200A20008068DF91CF91099481E0CD2B09F480E0AB2B09F08260672B09F08460452B89F39F
:200A40008860EFCFDF91CF910895CF93DF93EC01805E9109089720F063E57DE1209711F439
:200A600061E77AE1CE010E94EE048C2FDF91CF910C947219CF93DF93EC010E94081ACE0166
:200A8000805E9109089720F06AE57DE1209711F468E77AE1CE01DF91CF910C94EE04CF9389
:200AA000DF93D82FC92F0E9425058D2F9C2FDF91CF910C943A0581E008950C94CC040895B8
:200AC0000C945F051F93CF93DF9300D000D00F92CDB7DEB749835A836B83309125028981A9
:200AE0009A8131111DC06623B9F02223A9F00E943623182F682F89819A810E94DF22698121
:200B00007A81812F0F900F900F900F900F90DF91CF911F910C94EB060E940D23182FEFCF27
:200B20000E94362369817A81EDCFFC01262F408151816281738184810C946205CF93DF937D
:200B4000D82FC92F60E00E9495056D2F7C2FDF91CF910C946005FF920F931F93CF93DF9345
:200B6000E82FF0E0EE5CFB4FF490C82FC695C695C695D0E0FE01EE53FB4F0491877010E0B8
:200B8000082E02C0159507950A94E2F701701127CE54DB4FFE01C491D0E002C0D595C7951F
:200BA0008A95E2F7C170DD270115110519F081EE0E947219209719F086EE0E9472198F2D1A
:200BC0000E945E1ACD2B19F086EE0E94081A012B41F081EEDF91CF911F910F91FF900C94A7
:200BE000081ADF91CF911F910F91FF900895EF92FF920F931F93CF93DF938C01F62E8AE032
:200C0000E82EF8018491882309F454C0813009F04DC0E8012196FE018491813091F421969C
:200C2000FE0184910E945E1A8E010F5F1F4F8F2D815038F3EFE9FFE03197F1F700C000003C
:200C4000F7CF823039F4E8012296FE0184910E947219EACF833039F4E8012296FE018491BF
:200C60000E94081AE1CF8430F9F6E8012296FE01249190E080E0FE0131962053330B2A3067
:200C8000310548F0019780F2EFE9FFE03197F1F700C00000F7CFE89EA001E99E500D1124AF
:200CA000C901840F951F2491EF01E5CF0E94AB05E801BACFDF91CF911F910F91FF90EF90D8
:200CC000089560E00C94F7050E94D0260E948E24811102C00E9432250E9413130C94F508FD
:200CE0000C94F808282F2F7041F0822F90E02A3010F44D9608950697089587E290E008957E
:200D000008950E94771D0E9480062FEF84E39CE0215080409040E1F700C000000C94BD26BB
:200D20000F931F93CF93DF93EC0161E00E9495058C01BE010E945D05882389F1BE01C80124
:200D40000E949E13882359F1BE01C8010E942814882329F1BE01C8010E947D148823F9F0D1
:200D6000BE01C8010E9450158823C9F0BE01C8010E946012882399F08A81882339F00115BB
:200D80008CE5180751F00F3D1C4579F0CE01DF91CF911F910F910C945B050E94810680E0F4
:200DA000DF91CF911F910F9108950E943225F7CF08950C94D80681E008950C94DB06CF93BB
:200DC000C82F0E94D9068C2FCF910C94DD0690E080E008950895972F70E02CE0929F600D33
:200DE000711D1124FB0190E3899FE00DF11D1124EE0FFF1FEB52FF4F859194910895FC01EE
:200E0000EE0FFF1FEE52FB4F859194910895CF93DF930E94EB060E941908EC01811520E5A3
:200E2000920708F04BC0811530E4930708F0B2C0803E910518F5803C910508F09FC0883A9C
:200E4000910570F4853A910508F095C08130910529F10497813A910508F1D0E0C0E01EC082
:200E60008F3B9105D1F3C85AD0E0CC0FDD1FC45DDE4F0990D881C02DD46410C0811540E2B8
:200E8000940780F48F3F910509F040F4883E910528F0805F9109D0654097F8F6CE01DF918C
:200EA000CF910895C11580E3D80708F46DC0CE019927D3FD6CC0EC01D06CF0CFC11595E531
:200EC000D90760F5C11524E5D20708F094C0C11533E5D30778F4C11542E5D40708F07AC09B
:200EE000C11581E5D80708F458C0DC2FCC27C16FD06AD4CFCE018370992721E030E002C063
:200F0000220F331F8A95E2F7C695C69590E2C99FE0011124C22BD32BDA68C0CFC1152AE50F
:200F2000D207B0F4C11539E5D30708F074C0C11546E5D40708F464C0CE0198558F3F91051E
:200F400011F008F08ACFDC2FCC27C06FD06AA6CFCE0190568115904208F07FCF8D2F8F7144
:200F60000E94B10890E0982F882788279F719C012C2BE9014EC0A497D06490CF805C910941
:200F80000E94FF06EC018ACFCE019F70F9CFEC01D86C84CFDF70D06A81CFCE0174E0969513
:200FA00087957A95E1F783702C2F26952695237040E2249F90011124382B8C2F8370C1E07A
:200FC000D0E002C0CC0FDD1F8A95E2F7C22BD32BDC6864CFCE018370992721E030E002C019
:200FE000220F331F8A95E2F7C695C69580E2C89FE0011124EBCFDC2FCC27C46FD06A4ECF9F
:201000008C2F0E94B108C82FD0E0DC2FCC27CC27DF71D06243CF8C2F8F700E94B10834E065
:20102000D695C7953A95E1F7CF70DC2FC82FD06935CF803E910599F1C8F48133910509F4E3
:2010400076C048F48932910509F46AC08A32910509F474C0089589339105D1F08238910523
:20106000B9F08533910509F454C00895843E910599F138F4823E9105F9F0833E910509F12D
:201080000895863E910599F1873E9105B9F1089520910E032370A1F080EE90E0089520911B
:2010A0000E0320FD52C030910F0330FF09C024FF4FC090E080E004C020910E0322FDF7CFB8
:2010C000089520910E0322FD46C030910F0330FDE3CF24FFF5CFEDCF20910F0321FFF0CF95
:2010E00080910E0384FDE5CF87EE90E0089520910E0323FFE5CF24FDDCCFF6CF20910E032C
:2011000023FD2CC030910F0331FFE3CF84EE90E0089520910E0325FFD3CF89E290E008958F
:2011200020910E0325FFCCCF85E390E0089520910E0326FFC5CF8AE290E0089520910E0303
:2011400026FFBECF81E390E0089589E390E0089583EE90E0089582EE90E0089586EE90E014
:20116000089590910E0392FF06C0282F28712830F9F4877F846093FF06C0282F2871283189
:20118000F1F4877E846120910F0320FF06C0382F38713830D9F4877F816021FF06C0282F6F
:2011A00028712831D1F4877E816194FD877E0895282F24712430F9F68B7F8860DCCF282F3B
:2011C0002471243101F78B7E8861DDCF382F3171313019F78E7F8860E0CF282F2171213136
:2011E00021F78E7E8861E1CF08950C94F40808950C94F708E82FF0E0EE0FFF1FEA51FD4F34
:20120000808191810895089580EA8A95F1F70895F894E82FE295EF70F0E041A18F7021E048
:2012200030E0B90102C0660F771F8A95E2F7CB01962F9095942391A392A1892B82A3789466
:201240000895CF93DF9386EF0E94080985EF0E94080984EF0E94080981EF0E940809CAE5D6
:20126000D1E089910E94080981E0C636D807C9F71092DF021092DE021092E7021092E602DA
:201280001092E1021092E0021092E9021092E8021092E3021092E2021092EB021092EA0202
:2012A0001092E5021092E4021092ED021092EC0284E00E94DD09DF91CF910C946406AF92F5
:2012C000BF92DF92EF92FF920F931F93CF93DF93C6E6D1E00EED12E0D12CEE24E394F12C25
:2012E0008991F894E82FE295EF70F0E021A18F70A70102C0440F551F8A95E2F7CA01922F15
:20130000982B91A392A18095892382A378940E940409EAE5F1E030E020E0B12CA12C4191D6
:20132000A42FA295AF70B0E090968C9190E04F7002C0959587954A95E2F780FD39C0C70184
:20134000022E02C0880F991F0A94E2F7A82AB92A2F5F3F4F2C30310511F7FE0131978081A2
:201360000E940809F80180819181A816B90619F1B182A08281E0D82A0E5F1F4FF1E0CA36C3
:20138000DF0709F0ADCF2D2D44E066EE72E08EED92E00E94DE090E9470068D2DDF91CF91B6
:2013A0001F910F91FF90EF90DF90BF90AF90089590E080E0CBCF80E0DECF0895FF920F93EE
:2013C0001F93CF93DF93F82E092F162FD72FC42F222349F081E08093DE010E947E269093B1
:2013E000DD018093DC018091DE018823A1F08091DC019091DD010E948A26069760F0EF2DAB
:20140000F02FA12FBD2F90E080E0D0E08C179D0744F01092DE01DF91CF911F910F91FF90C6
:201420000895219131912D933D930196EFCFAF92BF92CF92DF92EF92FF920F931F93CF938A
:20144000DF93D62FC72F982F711115C0442329F0E82FF0E0E451FA4F9491692F792F892FFF
:20146000DF91CF911F910F91FF90EF90DF90CF90BF90AF900895272F30E0E82FF0E0442391
:2014800021F0E451FA4FE491F0E066E0D69F80011124EE24EA94F12CC801B7010E94B8324D
:2014A000AB018D2F90E0880F991FA5E5A49FB001A59F700D1124861B970B682F660F680FCB
:2014C000C701821B930B8E9FD0018F9FB00D9E9FB00D11247B2F6C9FE0011124CD2FDD2726
:2014E000C7018C1B9D0B8E9FE0018F9FD00D9E9FD00D11248D2F5701A61AB108A29E60013F
:20150000A39ED00CB29ED00C1124CD2CDD24EC18FD08EE9E9001EF9E300DFE9E300D112455
:201520009E2F43305105C1F00C3F63E0160760F441305105A9F042305105B1F00F3F110538
:2015400048F48B2F732F06C04430510581F046305105B9F3692F84CF9B2F7D2F8E2FFACF93
:201560009D2F8B2F7E2FF6CF832F9B2FFBCF8E2F932FF0CF41E00C94170A08950C94BA0A0C
:20158000CF93DF93982F762F842FE901692F0E94BE0A688379838A83DF91CF910895433395
:2015A00008F042E30C94C00A8091EE02982F9E7F61F4817082608093EE028091F1028333DA
:2015C00018F082E38093F10208958635B0F381708465F1CF88E090E00C94CF330F931F9335
:2015E000CF93DF938B01D82FC92F0E94D40AA8016D2F7C2F88E090E0DF91CF911F910F9124
:201600000C94ED33CF93DF9300D000D0CDB7DEB7EEEEF2E083E0808311828FEF828382E3EE
:201620008383148280819181A281B38189839A83AB83BC83BC01CD010F900F900F900F9007
:20164000DF91CF910C94EE0A8091EE0280FF02C08695089580E00895CF93DF9300D000D0B7
:20166000CDB7DEB79091F202933018F49F5F9093F2028823B1F08091EE029091EF02A091C8
:20168000F002B091F10289839A83AB83BC83BC01CD010F900F900F900F90DF91CF910C9417
:2016A000EE0A0F900F900F900F90DF91CF91089581E00C942C0BCF93DF9300D000D0CDB719
:2016C000DEB79091F202992319F091509093F2028823B1F08091EE029091EF02A091F00221
:2016E000B091F10289839A83AB83BC83BC01CD010F900F900F900F90DF91CF910C94EE0AB1
:201700000F900F900F900F90DF91CF91089581E00C945B0B21E030E001C0220F8A95EAF776
:2017200090910602922381E009F480E0089570E00C94D0126F927F928F929F92AF92BF92A8
:20174000CF92DF92EF92FF920F931F93CF93DF9300D000D00F92CDB7DEB7709008019091F9
:20176000EE0290FF26C0C090FB01D090FC01C114D10489F58091070133E0839FC0011124EF
:20178000672D8D509D4F0E94970B0F900F900F900F900F90DF91CF911F910F91FF90EF905F
:2017A000DF90CF90BF90AF909F908F907F906F9008958091090120910A0133E0839FF001D7
:2017C0001124ED50FD4F821770F61082118212828F5F3396F8CF90FFCDCFF12CE12C43E09D
:2017E000642E8E2D0E948A0B882309F43CC0F701EE0FFF1FEC0DFD1DA590B490A114B104B8
:2018000009F4B8CF45E050E0B501CE0101960E94B13309810F3F39F18A81800F9927991F39
:201820008630910514F085E090E04C01880C991C880D991D9C012D503D4F4901069D80018E
:2018400011240D501D4F0815190520F035E0A30EB11CD8CF98014D816C818B810E94CF0A2A
:201860000D5F1F4FF0CF8FEFE81AF80A28E0E216F10409F0B6CF7ECF9091EE0290FF14C019
:201880009091090120910A0133E0939FF0011124ED50FD4F921710F00C949A0B8083618398
:2018A00042839F5F3396F6CF0895CF93DF9300D00F92CDB7DEB79091EE0290FF0AC09E01D3
:2018C0002F5F3F4F0E94CF0A4B816A8189810E943C0C0F900F900F90DF91CF910895CF931A
:2018E000DF93EC01EC81F0E0E951FB4F4491EEEEF2E0628181810E94550C8C818F5F8C8353
:20190000DF91CF910895CF93DF93EC01EEEEF2E0438162818C810E94550C8C818F5F8C832A
:20192000DF91CF9108950F931F93CF93DF9300D00F92CDB7DEB78C018091DF0181110AC0AE
:201940009E012F5F3F4F42E36FEF0E94CF0A89818093DF01F8016481613049F06230F1F0B6
:201960008091DF0140E0662331F040E019C06091DF0140E080E00E943C0CF801848190E00A
:20198000019663E070E00E94CC3284830F900F900F90DF91CF911F910F9108954091DF012B
:2019A00080E060E0E8CFAF92BF92CF92DF92EF92FF920F931F93CF93DF9300D000D000D0C2
:2019C0000F92CDB7DEB7182FF62E042FD22E9091EE0290FF2BC0E92FE695AE2FB0E0A65925
:2019E000BE4F8C91809304029E7F923081F59E012F5F3F4F812F0E94CF0A4B816A818981A8
:201A00000E943C0C1093EF02F092F0020093F102DD2061F08091EE029091EF02A091F002CA
:201A2000B091F102BC01CD010E94EE0A27960FB6F894DEBF0FBECDBFDF91CF911F910F9129
:201A4000FF90EF90DF90CF90BF90AF900895823019F40091F102D6CF863019F41091EF0242
:201A6000D1CF8930D9F3893169F6E9518E2F8170C82EE695F0E0E951FA4FA590B490E12CF6
:201A8000BB2460910B01E61618F00E949A0BBACF2E2D30E0EA9CC001EB9C900D112470E03B
:201AA0000E94B832812FC11013C0860F40910901420F532F511D9A01220F331F240F351FF0
:201AC0002D503D4F402F6F2D0E94CF0AE394D9CF861BECCF282FEEEEF2E08181438162814E
:201AE000885F0C94D30C81E00C946A0D282FEEEEF2E081814381628188500C94D30C81E0A2
:201B00000C94760D282FEEEEF2E0628131E1630F08F46FEF438181810C94D30C81E00C9496
:201B2000820D282FEEEEF2E0628131E1631B08F460E0438181810C94D30C81E00C94910D7E
:201B4000282FEEEEF2E0438131E1430F08F44FEF628181810C94D30C81E00C94A00D282FB5
:201B6000EEEEF2E0438131E1431B08F440E0628181810C94D30C81E00C94AF0D20E00C94A6
:201B8000D30CEF92FF921F93CF93DF93EC0110E0EE24EA94F12C60910B01161770F00E9418
:201BA0009A0B9A818C8190FF27C08F5F8C83DF91CF911F91FF90EF90089520910901422F8E
:201BC000410F5527551FCA019A01220F331F280F391F2D503D4F70E0C7010E94CC32962FC7
:201BE0008C814091F1026091F002199F800D11240E94CF0A1F5FCFCF8150D8CFBF92CF92F6
:201C0000DF92EF92FF920F931F93CF93DF93FC0182810FEF80FF01E010E080910B0118177F
:201C2000C0F00E949A0B8091E101013009F054C0811102C080910B0181508093E101DF91D5
:201C4000CF911F910F91FF90EF90DF90CF90BF900895C0910901C12ED12CCC0DDD2DD11DF4
:201C6000CE01880F991FC80FD91FCD50DD4F188219821A8234E0E32EF12CB12C8091E1014B
:201C80008B0D86301CF165E00E94AA32892F082E000C990BC816D90691F48091F1028E9D17
:201CA000A0018F9D500D112455954795559547959E016091F0028091EF020E94CF0AB00E7C
:201CC000F1E0EF1AF108D1F61F5FA7CF87FFDFCF90910B01890FDBCF90E0019660910B01CF
:201CE00070E00E94CC32A9CF0F931F93CF93DF938091090190910A0123E0829FF0011124C3
:201D0000ED50FD4F891740F1C0E0D3E060910B01C61740F10E949A0B209105018091E0011B
:201D2000820F8093E00190910601920F90930601191654F4082E000C990B40910B01415060
:201D4000550B841795071CF0219520930501DF91CF911F910F9108951082118212828F5F0D
:201D60003396D0CF0C2F10E070E0C8010E94CC3220910901820F482F50E02091E001022E62
:201D8000000C330B02171307BCF020910601022E000C330B201731077CF08D9F900111241B
:201DA0002D503D4F4091F1026091F0028091EF020E94CF0ACF5FAACFFA01EE0FFF1FE40F46
:201DC000F51FED50FD4F108211821282F3CFEF92FF920F931F93CF93DF93CDB7DEB72E97D3
:201DE0000FB6F894DEBF0FBECDBF8D879E87AD85BE8514961C91212F30E0D9010E94103378
:201E00009B01AC010E94263369837A838B839C83E0E2F0E0E11BF109A5E5B0E09B01AC017D
:201E20000E94263369877A878B879C879F01DF010E9408336D837E838F8398879B01AC01B9
:201E40000E9431339B01AC0169817A818B819C81260F371F481F591F69857A858B859C859D
:201E60000E94E032F22E822F90E079E2721788F183E0289F9001112435952795122F1095B4
:201E800000E085E5E82EEF1880910B01081780F10E949A0BAD85BE8514969C9181E099237E
:201EA00019F0903219F48FEF8093040180910401890FED85FE8584832E960FB6F894DEBF58
:201EC0000FBECDBFDF91CF911F910F91FF90EF90089525E530E0D901A81BB90B9D01220F94
:201EE000331F2A0F3B1F37FFC7CF2F5F3F4FC4CF8E2D01FD8F2D20910901E22FE00FFF272C
:201F0000FF1F9F01220F331F2E0F3F1F2D503D4F412F6091F0020E94CF0A0F5FB5CF0F937A
:201F20001F93CF93DF93EC0110E000E090910B019017110609F06CF40E949A0B8C8190E056
:201F40000196817099278C83DF91CF911F910F91089520910901A801420F511D9A01220F7E
:201F6000331F240F351F2D503D4F4C816091F0028091EF0296959017110651F04CF0442300
:201F800049F04091F1020E94CF0A0F5F1F4FCECF4423B9F340E0F7CF8F929F92AF92BF9273
:201FA000CF92DF92EF92FF920F931F93CF93DF93FC01B280948081E0848300E015E05BE456
:201FC000A52E88248394EE24EA94F12C7BE4C72ED12C80910B01081770F0DF91CF911F9151
:201FE0000F91FF90EF90DF90CF90BF90AF909F908F900C949A0BC02FD0E01C9FF0011D9F3D
:20200000F00D1124EE51FE4F91101CC01382128220910901CE01820F911D9C01220F331F73
:20202000280F391F2D503D4F1C9FF0011D9FF00D1124EE51FE4F4281618180810E94CF0AC1
:202040000F5FC7CF2381222379F12150238334818A2D821B311101C0822F1C9FF0011D9FED
:20206000F00D1124EE51FE4F9091F102899FC0011124B6010E94B8326283211104C03323FC
:2020800011F01482A38222E02B1510F21C9FF0011D9FF00D1124EE51FE4F8091EF02808315
:2020A0008091F0028183B4CF0E94A133823091400CF0AECF82E08B1530F50E94A133B701CF
:2020C0000E94CC321C9FF0011D9FF00D1124EE51FE4F808322E02B15C8F40E94A133209112
:2020E000F0022695622F70E00E94CC32280F1C9FF0011D9FF00D1124EE51FE4F218312821D
:20210000A382848285CF8091EF02DCCF2091F002EECFCF93DF9300D000D0CDB7DEB7EEEECA
:20212000F2E080818E7F808380819181A281B38189839A83AB83BC83BC01CD010E94EE0A97
:20214000109205029FEFA0E7B2E09150A040B040E1F700C000000F900F900F900F90DF91FA
:20216000CF910C949A0B6091EE02669570E04BE050E08CE091E00E94BA33892B19F481E0A5
:20218000809305020E947E269093FE018093FD010895CF93DF9300D000D0CDB7DEB7909161
:2021A000EE0290FF41C09170811134C092609093EE02662381F08091EE029091EF02A091D5
:2021C000F002B091F10289839A83AB83BC83BC01CD010E94EE0A6091EE02669570E04BE0C7
:2021E00050E08CE091E00E94BA33892BD1F01092050281E0809300024091F1026091F00208
:202200008091EF020F900F900F900F90DF91CF910C94BE0D8B3210F09465C9CF880F982B5D
:20222000C6CF0E94B310E5CF0F900F900F900F90DF91CF910895682F8091EE0286958F5F66
:202240008B3208F081E00C94C91081E00C941B11682F9091EE0296958FEF890F913009F41B
:202260008AE20C94C91081E00C94281161E00C94C910EEEEF2E080818160808386950C9437
:2022800036118091EE0280FD0C9489100C94391160E00C94C9108091030281112EC00E9465
:2022A0008E24811104C00E9432250E94020B0E94EA0A6093EE027093EF028093F0029093D9
:2022C000F1026E7F61F40E94020B0E94EA0A6093EE027093EF028093F0029093F1020E94F0
:2022E000D40A109205028091EE0280FF03C086950E94481181E080930302089521E030E0D7
:20230000A90102C0440F551F8A95E2F7CA0120910602662361F0822B809306028091050254
:20232000811108C08091EE0286950C94481180958223F2CF08950F931F93CF93DF938091DD
:202340000502882309F49DC080910402E091EE02E695E81BE093FF018230C9F5F0E0ED518A
:20236000FB4FE491CE2FD0E00FE61CE080910002882389F0109200020E947E269E0120958B
:202380003095280F391F3093FE012093FD0110920202109201028091FD019091FE010E945A
:2023A0008A268C179D0708F46CC0E091FD01F091FE01CE0FDF1FD093FE01C093FD018DEF05
:2023C00091E0F801DF91CF911F910F910994863049F4F0E0E052FB4FE491CE2FD0E003E88A
:2023E0001CE0C4CF893051F4E695F0E0E352FB4FE491CE2FD0E001EC1DE0B8CF8F3051F4EF
:20240000E695F0E0E652FB4FE491CE2FD0E00EEF1DE0ACCF853149F4F0E0E952FB4FE4919B
:20242000CE2FD0E004E71EE0A1CFC8E2D0E007EE1EE0883109F49ACF833239F4E5EDF4E0A2
:20244000C591D49103E91CE091CFC4EFD1E00FE81FE0843209F48ACFC0EDD7E00DEB1AE0BD
:20246000853209F083CF8E2F63E00E949E32E92FF0E0EE52FB4FE491CE2FD0E00CEC1FE05D
:2024800075CFDF91CF911F910F910895FA0181110994FB01FDCFCF93DF93C82FD62F0E94D7
:2024A000240B8C1740F00E94240B8D1720F4DF91CF910C9425118C2FDF91CF910C94361179
:2024C0000F931F93CF938C01FB01C281CC2309F465C00E94D3238272F801E35CFC45E4314F
:2024E000F10538F4E05DFB4C0C9402330E944111C0E08C2FCF911F910F91089543E351E16D
:2025000065E271E10E944612F3CF45E251E163E371E1F8CF4FE75DE063E77DE0F3CF43E7A8
:202520005DE06FE77DE0EECF4DE95DE06EE87DE0E9CF4EE85DE06DE97DE0E4CF4BEB5DE0C4
:202540006CEA7DE0DFCF4CEA5DE06BEB7DE0DACF47E85BE068E57BE0D5CF48E55BE067E8DE
:202560007BE0D0CF81E00E943611C2CF65E082E00E944B12BDCF68E086E0FACF6EE089E026
:20258000F7CF64E18FE0F4CF67E185E1F1CF88E1EACF62E289E1ECCF83E2E5CFC1E0A9CFD3
:2025A0009C01AB01229A65B16B7F75B17460EFB7F894CA01880F991F840F951F820F931F46
:2025C0008217930741F4EFBF8FE594E00197F1F700C000000895D9014D919D0158E075B964
:2025E000000000C047FF65B9440F000000C000C000C065B900C05A9591F7E2CFCF93DF934A
:20260000EC01FB0197FF0BC08281882341F00E942913CE019F770E9481130E94631381E01F
:20262000DF91CF9108958CE090E00E94C73390E0B0E0A0E08093020390930303A0930403BA
:20264000B09305030895609102038CE090E00C94DB330E940C188695817080930703909102
:202660000203913029F4882319F089E30E945E1A0E94D323809306030E94E72380910203C7
:202680008230A9F030F481110DC082EE0E94721902C0843099F08FE39CE90197F1F700C099
:2026A0000000089588E193E00E944F05F4CF82EE0E94721987E50E945E1AEDCF86EE0E94F3
:2026C0005E1A88E1F8CF80910203823019F030F481110AC082EE0E94081A02C0843079F0EE
:2026E000809106030C94E4238CE20E945E1A809107038823A9F389E30E945E1AF1CF88E27F
:20270000FBCF0F931F93CF93DF938C01CCE0D0E0C8010C2E02C0969587950A94E2F78F705C
:202720000E9472060E944F052497CC3F8FEFD80779F7DF91CF911F910F9108950F931F93E5
:20274000CF93DF93EC018B01FB018281882361F00E94D323CE01825E9C458530910520F4AA
:20276000809302030E942313B801CE01DF91CF911F910F910C94FE120F931F93CF93DF93E9
:20278000C42FD22FFC0182818823C9F0409309020E947E26909308028093070280E28C0F77
:2027A000883008F050C0C77081E001C0880FCA95EAF7DF91CF911F910F910C94711A10913D
:2027C0000902141335C080910702909108020E948A26883C910560F5C0E2CD0F1D17B9F031
:2027E00080E2810F883040F4177081E001C0880F1A95EAF70E94781AC83048F481E09D2F96
:20280000977001C0880F9A95EAF70E94711A802F0E945E1AC830B8F4D77081E001C0880FAF
:20282000DA95EAF7DF91CF911F910F910C94781A80E28C0F883038F4C77081E001C0880F25
:20284000CA95EAF7EFCFDF91CF911F910F9108950F939C01CB01243F4CE53407A1F190F4CD
:20286000293DFCE53F0749F12A3D4CE53407E9F1283D3C45C1F0FC0182818823E1F110922E
:20288000090219C0263FFCE53F0719F1273F4CE5340729F1253F3C4571F707E225EE44EE57
:2028A00065EF7CE505C006E221EE41EE68ED7CE50E94BC1380E00F91089507E225EE45EE85
:2028C00069ED7CE5F5CF06E221EE40EE64EF7CE5EFCF06E221EE42EE66EF7CE5E9CF07E268
:2028E00025EE46EE67EF7CE5E3CF08E221E045EE6AED7CE5DDCF81E0DECFCF93DF93EC01D7
:20290000FB018281882309F4C9C0C631FCE5DF07E0F4C2309CE5D907F0F00E94A124909338
:202920000F0380930E03C631ECE5DE0720F5C230FCE5DF0798F480910E0390910F030E9463
:20294000AF240E94771D80E006C09E012B5F3C452930310510F3DF91CF910895FE01E3506D
:20296000FC4580910E038160E331F10588F4EC5BFB4C0C940233CB5FDC45C930D105D8F642
:20298000C95ADB4CFE010C94023380910E03826080930E03D0CF80910E038460F9CF809173
:2029A0000E038860F5CF80910F03816080930F03C2CF80910F038260F9CF80910E038061D0
:2029C000E7CF80910E038062E3CF80910E038064DFCF0E94771D80910E038068D9CF8091DE
:2029E0000E038C60D5CF80910F038360DFCF80910E038E7FCDCF80910E038D7FC9CF8091E0
:202A00000E038B7FC5CF80910E03877FC1CF80910F038E7FCBCF80910F038D7FC7CF8091AF
:202A20000E038F7EB5CF80910E038F7DB1CF80910E038F7BADCF0E94771D80910E038F7740
:202A4000A7CF80910E03837FA3CF80910F038C7FADCF80910E0382FB992790F921E092271E
:202A600090FB82F990FB83F993CF80910F03982F909591708E7F892B90FB81F997CF0E9409
:202A8000771D90910E03892F97FB87F9805880CF81E00E9434254FCF80E0FBCF81E05BCF50
:202AA000CF93DF93EB0186319C4511F50E94D3239A81992399F08A7A91E009F490E09093BB
:202AC0000A02811109C089E20E94AE230E94252480E0DF91CF91089585E3F6CF80910A02AF
:202AE000811104C089E20E94B523F0CF85E3FBCF81E0EFCF089508958BEE0E942B178A3F2B
:202B000009F08BC00E941F1790910803982B909310020E941F17982F990F990F980F9093BC
:202B200011020E941F17982F990F990F890F482F909111022091100230910E0232273770BC
:202B400050911302592B352B382B09F45CC020930E02322F307424FF61C0311103C0903846
:202B600009F097FF91E89093110225FF5DC027FD03C0803809F087FF41E8822F87708093D4
:202B8000100241954093120280910D0222FF52C0811109C00E947E2690930C0280930B0221
:202BA00081E080930D029091110280911202292F282B99F022E020930D0287FD8F5F8595B5
:202BC000819580931302892F97FD8F5F8595809314021092110210921202809110028B7FA2
:202BE000809310028091110290911202892B90911302892B21F08FE092E00E947B158FE026
:202C000092E00E94341810921102109212021092130210921402109210020895311102C025
:202C200097FFA1CF9FE79FCF27FD02C087FFA5CF4FE7A3CF813001F580910B0290910C021E
:202C40000E948A268C329140B8F4809110028460809310028FE092E00E9434188FEF91EEEF
:202C600024E0815090402040E1F700C00000809110028B7F8093100210920D02AECF84EFC4
:202C80000C942B170E9483162FEF83ED90E3215080409040E1F700C000008FEF0E942B171B
:202CA0000E941F170E941F170E943F160C947A150E94D9170C94EE17CF93DF93EC010E94A4
:202CC000DF17882311F0209721F4CE01DF91CF91089585E08A95F1F700002197F0CFCF9305
:202CE000DF93C2E3D0E00E94DF17811102C0209721F4CE01DF91CF91089585E08A95F1F7AD
:202D000000002197F0CF0E94D8170E94EA172FEF81E19AE7215080409040E1F700C000006E
:202D20000C945816CF92DF92FF920F931F93CF93DF93109215020E94DC170E94EE1784E69B
:202D400090E00E945C16892BC9F00E94F1178823B9F085E08A95F1F700000E94F11782E00C
:202D6000809315020E945816C0E08C2FDF91CF911F910F91FF90DF90CF90089581E0F0CF84
:202D80000E946F16892B11F483E0EACF10E000E0D1E0C0E0FF24F394CC24C394D12C82E3C3
:202DA00090E00E945C16892B11F484E0D9CF0E94F117882341F0DF25C601002E01C0880FF3
:202DC0000A94EAF7C82B0E946F16892B11F485E0C7CF0F5F1F4F0830110509F782E390E0A7
:202DE0000E945C16892B11F486E0BACF0E94F1178D1711F080E1B4CF0E946F16892B11F404
:202E000087E0AECF82E390E00E945C16892B61F00E94F11781110AC085E08A95F1F700006E
:202E20000E94F11789E09CCF88E09ACF0E946F16892B11F48AE094CF0E94581696CFCF93BF
:202E4000CBEF0E949216C15021F0909115029111F8CFCF910895EF92FF920F931F93CF93E6
:202E6000DF93C82F109215020E9458168FE891E00197F1F700C000000E94EB170E94DC17BF
:202E800080E197E20E945C16892B69F48AE0809315020E94581680E0DF91CF911F910F910F
:202EA000FF90EF900895F12CE12C11E0D0E001E090E59A95F1F7CE010E2C02C0959587951E
:202EC0000A94E2F780FF09C010270E94EE170E946F16892B29F482E0DACF0E94EB17F7CFE8
:202EE00082E390E00E945C16892B11F483E0CFCF8FEFE81AF80A98E0E916F104C9F680E51D
:202F00008A95F1F7112341F00E94EE170E946F16892B29F484E0BBCF0E94EB17F7CF82E3E9
:202F200090E00E945C16892B11F485E0B0CF90E59A95F1F70E94EE17C2E3D0E00E94F1173E
:202F4000882351F0209711F486E0A1CF85E08A95F1F700002197F2CFCD2BB1F382E390E09D
:202F60000E945C16892B11F487E091CF0E946F16892B79F488E08BCF95E09A95F1F7000027
:202F800021970E94F117811107C02097A9F789E07ECFC2E3D0E0F5CFCD2BC9F30E9458168C
:202FA000DF91CF911F910F91FF90EF900C941F1708952B98239A089523982B9A089523987B
:202FC0002B9A85E08A95F1F7000083B183FB882780F9089508952998219A08952198299A17
:202FE00008952198299A85E08A95F1F7000083B186958170089590931B0280931A02089563
:20300000E0911A02F0911B02309721F00190F081E02D099480E00895E0911A02F0911B02D9
:20302000309711F480E008950190F081E02D09950895DC01E0911A02F0911B02309799F025
:2030400080912B01882351F080910E0387FF06C08C9111968C93119785E08C930280F381D4
:20306000E02DCD0109940895DC01E0911A02F0911B02309739F082E08C930480F581E02DBB
:20308000CD010994089520911802309119022817390771F09093190280931802E0911A02A9
:2030A000F0911B02309721F00680F781E02D0994089520911602309117022817390771F0D2
:2030C0009093170280931602E0911A02F0911B02309721F00084F185E02D0994089585B709
:2030E000806885BF85B7806885BF0895089508950C9476180C949B040E946F180E9477189E
:203100000C94781881E008950C948218089508950E9475260E9421090E9442160E94E4265E
:203120000E944B110C947A189F92AF92BF92CF92DF92EF92FF920F931F93CF93DF9300D0C0
:2031400000D00F92CDB7DEB70E9486180E9487180E945F090E948418882309F473C05DE103
:20316000A52E52E0B52E10E000E0902E802F0E94FA087C01F501C190D1905F01C816D90644
:2031800009F45AC08091A90281FD0E94030996012E253F2580E0CC24C394D12CA9014C2127
:2031A0005D21452B09F442C089839A82EC20FD2081E0EF2809F480E08B830E947E268160C7
:2031C000782F9D838C8349815A816B818D810E944419000F111FF801E35EFD4F80819181A3
:2031E000C826D926D182C0820E949B110E94A2280E947C150E94001890911C02891799F13D
:203200000E94001880931C020F900F900F900F900F90DF91CF911F910F91FF90EF90DF900B
:20322000CF90BF90AF909F900C94DF068F5FCC0CDD1C8C3009F0B2CF0F5F1F4F04301105D2
:2032400009F093CF8FEF89838A831B820E947E268160782F9D838C8349815A816B818D8143
:203260000E944419C1CF0F900F900F900F900F90DF91CF911F910F91FF90EF90DF90CF90A8
:20328000BF90AF909F900895CF93DF93CDB7DEB72B970FB6F894DEBF0FBECDBF4F8358872D
:2032A00069877A878B871E8285E0FE013796DE01119601900D928A95E1F749815A816B81FC
:2032C0007C818D819E812B960FB6F894DEBF0FBECDBFDF91CF910C94DA1FFC018081918143
:2032E0000C947823CF93C82F882309F48FC08238C1F40E94001881FD89C089E30E94AE2374
:203300000E9425242FEF31EE84E0215030408040E1F700C0000089E30E94B523CF910C9402
:2033200025248338A1F40E94001880FD6FC083E50E94AE230E9425249FEF21EE34E0915036
:2033400020403040E1F700C0000083E5E5CF8438A1F40E94001882FD59C087E40E94AE2368
:203360000E9425248FEF91EE24E0815090402040E1F700C0000087E4CFCF8CEF8C0F813AEE
:20338000B8F48C2F0E94202B811140C06C2F80911701909118010E944D25882329F08C2FB6
:2033A0000E94B5230E9425248C2F0E94AE23B6CF80E28C0F883048F4C77081E001C0880F14
:2033C000CA95EAF70E94D623A9CF8BE58C0F833038F42C2F2452330BC901CF910C9443187C
:2033E000E8E5EC0FE73150F4F0E0EE0FFF1FEB56FE4F80819181CF910C945918C03F30F08D
:203400008C2F0E949D27CF910C948828CF910895882309F452C0823871F40E94001881FFCB
:203420004CC089E30E94AE230E94252489E30E94B5230C942524833859F40E94001880FFA6
:203440003CC083E50E94AE230E94252483E5EFCF843859F40E94001882FF2FC087E40E9444
:20346000AE230E94252487E4E2CF9CEF980F913AF0F290E2980F983050F4877091E001C047
:20348000990F8A95EAF7892F0E94DC23D2CF9BE5980F933020F490E080E00C94431898E544
:2034A000980F973120F490E080E00C945918803F20F00E9405280C9488280895CF93C82FC4
:2034C0000E947219C93349F42FEF87EE93E0215080409040E1F700C000008C2FCF910C942C
:2034E000081A882321F00E94D6230C9425240895882321F00E94DC230C9425240895AF92A9
:20350000BF92CF92DF92EF92FF920F931F93CF93DF9300D000D00F92CDB7DEB76C016D8397
:203520007983FC01058102950F70128111110E94F8230E94CC23E82E882391F01123D1F0BC
:203540008981807F803421F08D81805E883090F082E00E9470240E94CC2391E0E82EE926BA
:20356000A980A2949FE0A922B12CF501E05AFB4C0C940233E12CF4CF09810F70F981F07FB7
:2035800011F00295007F1123B1F0002361F08D81805E883018F02D81211109C0802F0E9425
:2035A000D6230E9425248D810E94721915C0802F0E94EA23F6CF8D810E94081A002361F0AE
:2035C0008D81805E883018F04D81411133C0802F0E94DC230E94252458E0A51AB10864E0FD
:2035E000A616B10420F40E9400180E94DF06EE2009F40AC20E94C82380FD06C2F6011282D1
:203600000E94C2230E94CF21C6010E942B1D0E94C2230F900F900F900F900F90DF91CF916E
:203620001F910F91FF90EF90DF90CF90BF90AF900C940022802F0E94F023CCCF59815F7066
:20364000F52E6981607F603219F0F29480EFF8227D81772369F0713049F1112391F100232F
:2036600051F1F601858180FF9ECF8F70858323C0112381F0011106C00E940C248F290E948C
:20368000711AAACF0130C1F70E940C248F290E941224A2CF011106C00E941B248F2D0E9453
:2036A000781A9ACF013009F497CFF6CF112329F0063008F091CF8F2DE2CF053008F08CCFE6
:2036C000EDCF002359F3FD81F93349F42FEF47EE53E0215040405040E1F700C000008D812B
:2036E0000E94081A79CF898186958695837069F0813009F071CF8D8199819370111102C039
:2037000090E080E00E94591867CF8D8199819370111102C090E080E00E9443185DCF8D817A
:20372000112311F10E949D276D81653F71F0663F91F0643FB1F48091080390910903816062
:20374000909309038093080347CF80910803909109038260F5CF80910803909109038460EA
:20376000EFCF0E94882838CF0E9405287D81753F51F0763F71F0743FA1F7809108039091D2
:2037800009038E7FDDCF80910803909109038D7FD7CF80910803909109038B7FD1CF89816C
:2037A000837009F059C0111117CF4D81429546954770440F440F8D818F7090E0B0E0A0E092
:2037C000042E04C0880F991FAA1FBB1F0A94D2F7ED8100E010E09801E4FF0FC00FE010E032
:2037E00020E030E004C0000F111F221F331F4A95D2F70095109520953095F981F695F69537
:20380000F370FD83B901A801482B592B6A2B7B2B49835A836B837C83F23081F0F330A9F04B
:20382000F13029F0CB01BA010E943021D5CE69817A818B819C810E940821CECE69817A81D7
:203840008B819C810E945821C7CE69817A818B819C810E940621C0CE8695112311F08981D0
:203860008170882309F4B8CE4D81429546954770440F440F8D818F7090E0B0E0A0E0042E8D
:2038800004C0880F991FAA1FBB1F0A94D2F75D8100E010E0980154FF0FC00FE010E020E0C3
:2038A00030E004C0000F111F221F331F4A95D2F70095109520953095698166956695637053
:2038C0006D83B901A801482B592B6A2B7B2B49835A836B837C835D8169817A818B819C81E1
:2038E000523051F0533059F0513019F00E948E2273CE0E94662270CE0E94B6226DCE0E945D
:2039000082216ACE69816F706983112329F0862F0E94CF218D81B3CE8D810E94781A8981A8
:203920000E94002259CE7D81723FA1F160F4703FE1F0713F41F1112309F445C0011133CE5C
:2039400089818F7124C08D81833F49F1843F99F7112379F199819F719983892F0E94CF21EE
:2039600063E089810E945B2437CE112341F0053008F032CE89818F710E9435222DCE06300E
:2039800008F02ACEF7CF89818F71112349F20E94CF2122CE89818F711123C9F3C1CF1123B8
:2039A00029F089818F710E94AA2116CE0E948E2113CE81E00E947024023008F40DCE82E05F
:2039C0000E94702409CE002361F0ED81E93309F086CEFFEF27EE43E0F15020404040E1F770
:2039E0007CCE89818F719CCF49814F706D81C6010E94E7060E947A20EFCD49814F706D81CC
:203A0000C6010E94EA06E8CD0F900F900F900F900F90DF91CF911F910F91FF90EF90DF90E0
:203A2000CF90BF90AF9008950F931F93CF93DF93EC01688179818A810E9484238C010E9481
:203A4000DE220E940521B801CE01DF91CF911F910F910C947F1ACF93DF93EC018B819C81D3
:203A6000892B29F08881998189238F3F59F4DF91CF910895CE010E94141DCE01DF91CF91E1
:203A80000C949E05CE010E9490068111F3CF0E94CC23882361F38A81882349F382E0DF9134
:203AA000CF910C947024882321F00E94EA230C9425240895882321F00E94F0230C94252427
:203AC00008950E94F8230E9409240E9425240E94B2290E94882890E080E00E94431890E0C6
:203AE00080E00C9459180E94BC230C94611D0E94E7230C94731D282F892F82958F70903CE9
:203B000080F48A30B0F4843020F4823090F480E008958630E1F781E0283E88F0213FB9F7FB
:203B20000EC08C3011F08F3091F793FB882780F9089581E0203F39F018F4283E40F7089531
:203B4000243F29F7FCCF08950E9478230C947B1DCF93DF9300D000D00F92CDB7DEB70F9038
:203B60000F900F900F900F90DF91CF910895CF93DF9300D000D000D0CDB7DEB726960FB67E
:203B8000F894DEBF0FBECDBFDF91CF9108951F93CF93DF93E091260216E0809127028E1346
:203BA00004C0DF91CF911F910895CE2FD0E01E9FF0011124E85DFD4F408151816281738199
:203BC000848195810E94B71DFE013196E770E5CF409158025091590260915A0270915B0271
:203BE00080915C0290915D020C94B71D1F93CF93DF9380915D02807FA9F480915A028823B8
:203C000089F080912602C09127026091580270915902A0915B02B0915C02D62FD72316E0AF
:203C2000C81304C0DF91CF911F91089590E0109711F0DF3F19F401968770F2CF189F9001EE
:203C4000199F300D1124F901E85DFD4F41814713F2CF40814613EFCF42814111ECCF438166
:203C600054814A1B5B0B483C510528F780915D028F70806180935D02F901E35DFD4F808162
:203C80008F708061808388E592E00E942B1DDF91CF911F910C94C71DAF92BF92CF92DF9210
:203CA000EF92FF920F931F93CF93DF93CDB7DEB72B970FB6F894DEBF0FBECDBF8C0185E0B6
:203CC000F801DE01179601900D928A95E1F7F80140815181E28088E5C82E82E0D82E60918E
:203CE0005B0270915C026115710509F444C19091580220915902822F89238F3F09F43BC16F
:203D0000A380B480F0905A02F501E61BF70BFF2009F4E0C080915D02382F307FE83CF1051B
:203D200008F0B2C0311179C0FE2C251323C0941321C0E1101FC08F70806180935D020E940D
:203D4000E81DC6010E942B1D80915D02F80185838F2D2B960FB6F894DEBF0FBECDBFDF9108
:203D6000CF911F910F91FF90EF90DF90CF90BF90AF900895AB2829F0842F85238F3F09F07E
:203D800016C180E0F82FF170DF2EE09126022091270236E080FD1CC0EE20D1F280915D0234
:203DA000816080935D02F12CD3CF8E2F90E03E9FF0011124E85DFD4F6181651306C060812F
:203DC000641303C06281E612E7CFFC013196E770E213EBCF4F8358878F8198850E94782333
:203DE000292F22952F70903260F0225F2F70223078F49F7051F0F8019581907F31F4D12C95
:203E00000AC09F7011F08823D1F3805E8830B8F3C8010E942B1DFD2C9BCF251306C094132D
:203E200004C0F801EE2009F470C04F8358878F8198850E94A41D882319F1EE2009F180917B
:203E40005D02803270F020915802309159023A8329831B82BD82AC828E83CE0101960E943E
:203E60002B1D86E0F801A8E5B2E001900D928A95E1F70E94F61D0E94E81DFF24F39468CF18
:203E8000C8010E942B1DF9CF311113C07A2DBB86AA866E2D8B850E94A81D88E592E00E94E7
:203EA0002B1D86E0F60111928A95E9F70E94E81D7ACF2513BACF9413B8CFE110B6CFF8016D
:203EC0008583C8010E942B1D86E0F60111928A95E9F73ECFE83CF10508F040C0FE2CEE20D1
:203EE00079F225132AC0941328C080915D0280FD1BC0982F907FC1F0F8018583903F31F066
:203F0000982F907F905F8F70892B8583C8010E942B1D86E0F801A8E5B2E001900D928A95A1
:203F2000E1F70E94E81D14CF86E0F801A8E5B2E001900D928A95E1F70BCF4F8358878F81DF
:203F400098850E94A41D81118CCF80915D02816080935D02C8010E942B1DFACE7A2DBB86CE
:203F6000AA866E2D8B850E94A81D86E0F60111928A95E9F7D6CFEE2009F482CF4F8358874E
:203F80008F8198850E94A41DF82E882309F478CF86E0F801A8E5B2E001900D928A95E1F7D7
:203FA00088E592E00E946D190E94F61DBACF81E08E25E8CE1F93CF93DF93CDB7DEB72C9790
:203FC0000FB6F894DEBF0FBECDBF4F83588769877A878B879C87CE0107960E944C1E8823A0
:203FE00069F08A859B85892B39F04F815885842F85238F3F09F077C016E065C086E0FE01D6
:204000003796DE01119601900D928A95E1F76A857B856115710581F35F814885842F8523CF
:204020008F3F51F32091270230E0C901019687709927E0912602E817190671F40E94771D1A
:20404000109227021092260286E0E8E5F2E0DF011D928A95E9F7D0CF59834A837D836C8301
:2040600096E0929FD001939FB00D1124A85DBD4FFE01319601900D929A95E1F7809327025A
:204080000E94C71DB9CF819FC0011124885D9D4F0E944C1E8823E9F0E09126021E9FF00154
:2040A0001124E85DFD4F4081518162817381848195810E94B71D8091260290E00196877008
:2040C00099278093260280912602909127028913DACF2C960FB6F894DEBF0FBECDBFDF91A4
:2040E000CF911F91089569857A858B859C850E94B71D82CFEF92FF920F931F93CF93DF93F4
:204100008C01892B89F0F12CEE24E394E8012196F8018491843709F457C0A0F4823009F47F
:204120003EC048F48130D1F0DF91CF911F910F91FF90EF9008959CEF980F9037A8F70E94CE
:2041400072190AC0853709F44CC09CE7980F903758F78F770E94081A8E0116C00E5F1F4FFB
:20416000FE01849190E2980F983060F48770FE2D01C0FF0F8A95EAF78F2F0E94FB230E94E5
:20418000252402C00E9472198F2D815008F4BECFEFE9FFE03197F1F700C00000F6CF0E5F78
:2041A0001F4FFE01849190E2980F983050F48770FE2D01C0FF0F8A95EAF78F2F0E940124E2
:2041C000DECF0E94081AE0CF0E5F1F4FFE01C491C150D0F28FE99FE00197F1F700C0000086
:2041E000F7CF0E5F1F4FFE01F490CECF08950C94F6200E94F72060938002709381028093E4
:204200008202909383020C94611D08950C94F920CF93DF9300D000D0CDB7DEB769837A8388
:204220008B839C838091800290918102A0918202B091830229813A814B815C81282B392BDA
:204240004A2B5B2B29833A834B835C83CA01B9010F900F900F900F90DF91CF910C94F920C3
:20426000CF93DF9300D000D0CDB7DEB769837A838B839C838091800290918102A0918202AF
:20428000B091830229813A814B815C81282339234A235B2329833A834B835C83CA01B9011D
:2042A0000F900F900F900F90DF91CF910C94F920CF93DF9300D000D0CDB7DEB769837A8383
:2042C0008B839C838091800290918102A0918202B091830229813A814B815C812827392742
:2042E0004A275B2729833A834B835C83CA01B9010F900F900F900F90DF91CF910C94F9202B
:204300000C94AA040E94802160937C0270937D0280937E0290937F020C94611D60E070E034
:20432000CB010C948221382F292FCB01A32FB22F0097A105B10529F481E0442351F080E0B7
:20434000089504C0B695A795979587954A95D2F7817008950F931F93CF93DF9300D000D02F
:20436000CDB7DEB741E050E060E070E08A019B0104C0000F111F221F331F8A95D2F7098312
:204380001A832B833C83C901B8010F900F900F900F90DF91CF911F910F910C9482210F930F
:2043A0001F93CF93DF9300D000D0CDB7DEB741E050E060E070E004C0440F551F661F771F37
:2043C0008A95D2F780917C0290917D02A0917E02B0917F028A019B01082B192B2A2B3B2BFA
:2043E00009831A832B833C83C901B8010F900F900F900F90DF91CF911F910F910C948221C5
:204400000F931F93CF93DF9300D000D0CDB7DEB741E050E060E070E004C0440F551F661FCA
:20442000771F8A95D2F7409550956095709580917C0290917D02A0917E02B0917F028A011D
:204440009B01082319232A233B2309831A832B833C83C901B8010F900F900F900F90DF91A9
:20446000CF911F910F910C9482210F931F93CF93DF9300D000D0CDB7DEB741E050E060E0D7
:2044800070E004C0440F551F661F771F8A95D2F780917C0290917D02A0917E02B0917F029C
:2044A0008A019B01082719272A273B2709831A832B833C83C901B8010F900F900F900F901E
:2044C000DF91CF911F910F910C948221CF93DF9300D000D0CDB7DEB769837A838B839C83D6
:2044E00080917C0290917D02A0917E02B0917F0229813A814B815C81282B392B4A2B5B2B5A
:2045000029833A834B835C83CA01B9010F900F900F900F90DF91CF910C948221CF93DF939D
:2045200000D000D0CDB7DEB769837A838B839C8380917C0290917D02A0917E02B0917F020A
:2045400029813A814B815C81282339234A235B2329833A834B835C83CA01B9010F900F90E2
:204560000F900F90DF91CF910C948221CF93DF9300D000D0CDB7DEB769837A838B839C8347
:2045800080917C0290917D02A0917E02B0917F0229813A814B815C81282739274A275B27C9
:2045A00029833A834B835C83CA01B9010F900F900F900F90DF91CF910C9482210895E82F1D
:2045C0002CE0929FE00D11248E2F877041E001C0440F8A95EAF7E695E695E69585E0E89F36
:2045E000F0011124E25AFD4F30E020E070E05191DF011197CB01022E02C0969587950A94A0
:20460000E2F7817081958527842385278C932F5F3F4F2530310559F70895E82F2CE0929FB4
:20462000E00D11249E2F9770E695E695E69585E0E89FF0011124E25AFD4F50E040E080E0C9
:20464000219130E0092E02C0369527950A94E2F721703327042E01C0220F0A94EAF7822B66
:204660004F5F5F4F4530510559F70895BF92CF92DF92EF92FF920F931F93CF93DF938C013C
:20468000C0907C02D0907D02E0907E02F0907F028091800290918102A0918202B0918302CA
:2046A000C82AD92AEA2AFB2ACFE1D0E0BC2ED701C6010C2E04C0B695A795979587950A9478
:2046C000D2F780FD0EC0219788F7B12C8B2DDF91CF911F910F91FF90EF90DF90CF90BF90AF
:2046E0000895B8018C2F0E940707019761F3EECFCF93DF93D82FC92F0E9436236D2F7C2F3B
:20470000DF91CF910C9407071F93CF93DF93162FD72F90912502992339F0862F972FDF9132
:20472000CF911F910C947823882391F0862F972F0E943623C82F682F812F9D2F0E94DF22DF
:20474000612F7D2F8C2FDF91CF911F910C940707862F972F0E940D23C82FF2CF682F809187
:204760001701909118010C94D125682F80911701909118010C94DC25809117019091180153
:204780000C94E725809184028595859585950895809184028770089590918402977081E0B1
:2047A00009F480E008958091A80208959091A802982B9093A8020895982F90958091A80208
:2047C00089238093A80208958093A80208951092A80208959091A702982B9093A70208959A
:2047E000982F90958091A70289238093A70208951092A70208959091A602982B9093A602CF
:204800000895982F90958091A60289238093A60208951092A6020895809185020895089599
:204820000C940F2490918502981721F0809385020C941024089580918502882329F0109234
:20484000850280E00C9410240895E0911701F09118018091A8028083E0911701F0911801FC
:2048600080819091A702892B8083E0911701F091180180819091A602892B8083909185026A
:20488000992381F0E0911701F09118018081892B808380911701909118010E94392581111B
:2048A0000E941B2480911701909118010C94191808950C94582498E0899F90011124622B37
:2048C000609384020E94CF21809184028595859585950C9459241092840280E00C94592426
:2048E000909184028095892380938402282F277071F4282F082E000C330B9217130639F0A2
:204900008595859585950E9400220C946B2408956FEF7FEF90E080E00C94F93390E080E081
:204920000E94D5339C0181E02C3E3E4F09F080E0089582E090E00C94C73383E090E00C9403
:20494000C733CF9384E090E00E94C733C82F81E290E00E94C733982F8C2FCF910895CF9344
:20496000682FC92F84E090E00E94DB336C2F81E290E0CF910C94DB33AB01BC018FE090E060
:204980000C94ED33AB01BC0183E190E00C94ED3360E070E0CB010C94C22460E070E0CB011C
:2049A0000E94BC240C94C8246CEE7EEF90E080E00E94F93360E082E090E00E94DB3360E082
:2049C00083E090E00E94DB331092800210928102109282021092830260E084E090E00E9408
:2049E000DB3360E081E290E00E94DB3360E085E090E00E94DB3360E086E090E00E94DB335B
:204A00006FEF87E090E00E94DB3340E050E0BA0188E090E00E94ED3360E08DE090E00E944D
:204A2000DB3340E050E0BA0188E190E00E94ED3360E087E190E00E94DB3340E050E0BA01EF
:204A40008CE190E00E94ED3360E080E290E00E94DB3340E050E0BA0188E190E00E94ED334F
:204A60000C94CD240C94D424682F8EE090E00C94DB33FC01329680912B01882321F080911B
:204A80000E039EE187FF96E080E0915008F4089521912223D1F38F5FF8CF9C01662301F128
:204AA00080912B018823F1F080910E0387FF1AC0462F469546954695603F90F4677081E04A
:204AC00090E002C0880F991F6A95E2F7240F311DF901228130E02823392381E0232B71F494
:204AE00080E00895F9013296285F3F4F8191861721F0E217F307D1F7F3CF81E008959C010A
:204B0000FC0132968FEF90E04191461751F08F3F19F4411101C0892F9F5F9630A9F78F3F9A
:204B200009F40895280F311D87FD3A95F901628308959C01FC013296285F3F4F8191861365
:204B400003C0DF0111971C92E217F307B9F70895E62FE695E695E695603F68F4E80FF92F7C
:204B6000F11D677021E030E001C0220F6A95EAF78281822B82830895E62FE695E695E69595
:204B8000603F70F4E80FF92FF11D677081E090E001C0880F6A95EAF780959281892382832C
:204BA000089520912B01222329F020910E0327FD0C94A8250C947F2520912B01222329F04B
:204BC00020910E0327FD0C94BC250C949925FC01329680912B01882351F080910E0387FF7A
:204BE00006C08EE1DF011D928A95E9F7089586E0F9CF089508950C94FA250E94FB2580915B
:204C00001403843049F11092AA0288E190E020E40FB6F894A895809360000FBE2093600083
:204C200080E00E94DF060E94FB2583B7817F846083BF83B7816083BF7894889583B78E7F9E
:204C400083BF0FB6F894A89580916000886180936000109260000FBE08950895CF930E94AA
:204C6000F9250E945F090E942D26C0E08C2F0E94FA08892B31F4CF5FC430C1F780E0CF91A5
:204C8000089581E0FCCF08950C9443260E94771D0E9400180E94DF060C9444261F921FB69E
:204CA0001F9211248F939F93AF93BF938091AA02811113C080910A0390910B03A0910C0377
:204CC000B0910D034196A11DB11D80930A0390930B03A0930C03B0930D03BF91AF919F917A
:204CE0008F911F901FBE1F90189582E084BD93E095BD9AEF97BD80936E0008952FB7F894D7
:204D000080910A0390910B03A0910C03B0910D032FBF08959C014FB7F89480910A039091BC
:204D20000B03A0910C03B0910D034FBF821B930B089578941F921FB61F9211248F939F9322
:204D4000AF93BF9380910A0390910B03A0910C03B0910D030196A11DB11D80930A0390937B
:204D60000B03A0930C03B0930D03BF91AF919F918F911F901FBE1F90189587E797E79093B9
:204D800001088093000888E19AE00FB6F894A895809360000FBE90936000FFCF0C948824A1
:204DA0000E945F098FE39CE90197F1F700C000000E945F0980E00E94FA0880FF04C00E94BF
:204DC000CE260C94BD260895CF93DF9300D000D0CDB7DEB70E948E24811102C00E94322591
:204DE0000E9499248093A9020E94A12490930F0380930E030E949D24282F30E050E040E0BC
:204E0000CA01B9010E94062180917C0290917D02A0917E02B0917F0289839A83AB83BC830C
:204E2000BC01CD010F900F900F900F90DF91CF910C9480218091B10280FF12C060911E0135
:204E400085E0689FB0011124759567957595679560387105A8F561157105A1F1862F089579
:204E600081FF09C060911E0185E0689FB001112475956795EDCF60911E0182FD0AC080915B
:204E8000B0028823D1F090911D0160911E01891728F085E0689FB0011124DACF869FB0011C
:204EA000112485E0869F9001879F300D1124692F70E0C9010E94CC32CBCF65E070E0CECFEC
:204EC0008FE7089581E008958091B10280FF0CC060911A0170E075956795759567956115D4
:204EE000710549F1862F089581FF06C060911A0170E075956795F3CF60911A0182FD0BC0F0
:204F00009091AF029923A1F06091190180911A01961738F0682F70E06038710500F38FE708
:204F20000895899FC001112470E00E94CC32F4CF61E070E0D7CF81E00895803F31F40E9448
:204F40001A2781958093B5020895813F19F40E941A27F8CF823F31F40E941A27819580932A
:204F6000B4020895833F19F40E941A27F8CF893F29F40E9464278093B60208958A3F21F40D
:204F80000E9464278195F7CF8B3F31F40E94642781958093B70208958C3F19F40E94642768
:204FA000F8CF843F31F48091B30281608093B3020895853F21F48091B3028260F7CF863F2A
:204FC00021F48091B3028460F1CF873F21F48091B3028860EBCF883F21F48091B30280618C
:204FE000E5CF8D3F31F48091B10281608093B10208958E3F21F48091B1028260F7CF8F3FE8
:20500000B9F78091B1028460F1CF9091B402803F59F48091B50287FF0DC01092B50291117F
:205020000BC01092B00208C0813F81F48091B50218169CF3992381F08091B6029091B702FF
:20504000892B09F064C01092AF020895823F49F497FFF0CF1092B4028091B5028111ECCFCF
:20506000E0CF833F19F41916ACF3E4CF2091B602893F29F41216F4F61092B602DBCF8A3F04
:2050800019F427FFD7CFF8CF2091B7028B3F29F427FFD0CF1092B702CDCF8C3F19F4121663
:2050A000CCF3C8CF843F31F48091B3028E7F8093B302C0CF853F21F48091B3028D7FF7CF17
:2050C000863F21F48091B3028B7FF1CF873F21F48091B302877FEBCF883F21F48091B30263
:2050E0008F7EE5CF8D3F31F48091B1028E7F8093B102A0CF8E3F21F48091B1028D7FF7CF80
:205100008F3F09F097CF8091B1028B7FF0CF08950E947E262091B4023091B502232B21F0B4
:205120008093AD029093AE022091B6023091B702232B21F08093AB029093AC0282EB92E028
:205140000C943418EF92FF920F931F93CF93DF9300D000D000D0CDB7DEB786E0E2EBF2E09B
:20516000DE01119601900D928A95E1F7E090B402F090B5020091B6021091B7021092B4022A
:205180001092B5021092B6021092B7028F2D8E2991F08091AD029091AE020E948A269C018D
:2051A0008091B002882309F443C090911F019217130608F44BC0802F812B91F08091AB02DD
:2051C0009091AC020E948A269C018091AF02882309F47BC090911B019217130608F483C02E
:2051E0008091B4029091B502892B9091B602892B9091B702892B11F00E948828EB82FC8203
:205200000D831E8386E0FE013196A2EBB2E001900D928A95E1F726960FB6F894DEBF0FBE74
:20522000CDBFDF91CF911F910F91FF90EF900895409120019AE0499FA0011124421753073A
:2052400008F0B9CF8F5F8093B00202C08F3FD1F7EE2059F00E941A279FEF1E140CF491E058
:20526000899F802D11248093B402FF2059F00E941A279FEF1F140CF491E0899F802D1124D4
:205280008093B5023091B402332309F494CF2091B502222309F48FCF45EB3403C0011124B2
:2052A000992359F09093B40245EB240390011124332339F03093B5027ECF81E08093B40283
:2052C000F3CF81E08093B50276CF40911C019AE0499FA00111244217530708F081CF8F5F8D
:2052E0008093AF0202C08F3FD1F7002359F00E9464279FEF10160CF491E0899F802D1124CA
:205300008093B602112359F00E9464279FEF11160CF491E0899F802D11248093B70230915B
:20532000B602332309F45CCF2091B702222309F457CF45EB3403C0011124992359F09093E0
:20534000B60245EB240390011124332339F03093B70246CF81E08093B602F3CF81E0809306
:20536000B7023ECF86E0E2EBF2E0DF011D928A95E9F71092B0021092AF021092B10208953B
:20538000843009F442C038F48230E9F0833061F1813041F00895853009F448C0863009F4B2
:2053A00056C0089580912001482F460F5527551F4F3F510524F4680F6093200108958FEFAA
:2053C00080932001089580911F01482F460F5527551F4F3F510524F4680F60931F010895EC
:2053E0008FEF80931F01089580911E01482F460F5527551F4F3F510524F4680F60931E01EE
:2054000008958FEF80931E01089580911D01482F460F5527551F4F3F510524F4680F609351
:205420001D0108958FEF80931D01089580911A01482F460F5527551F4F3F510524F4680F0A
:2054400060931A0108958FEF80931A01089580911901482F460F5527551F4F3F510524F475
:20546000680F6093190108958FEF809319010895843071F138F48230A9F08330F1F08130F1
:2054800031F00895853079F18630C1F1089580912001681720F4861B809320010895109251
:2054A0002001089580911F01681720F4861B80931F01089510921F01089580911E016817EB
:2054C00020F4861B80931E01089510921E01089580911D01681720F4861B80931D010895B9
:2054E00010921D01089580911A01681720F4861B80931A01089510921A010895809119019F
:20550000681720F4861B8093190108951092190108950F931F93CF93DF9300D000D0CDB7E8
:20552000DEB741E050E060E070E08A019B0104C0000F111F221F331F8A95D2F709831A8327
:205540002B833C83C901B8010E9406210F900F900F900F90DF91CF911F910F910C94771DC2
:20556000EBEFE80FEF3308F05AC0F0E0E059FB4C0C9402330E94322581E008958091A9024E
:20558000807F8093A90281E08093B90208950E948106F2CF9091A902892F8E7F90FF816097
:2055A0008093A90280FDE8CF817F8093A902E4CF9091A902892F8D7F91FF82608093A902C8
:2055C00081FFDACF8091A9028160EFCF9091A902892F8B7F92FF84608093A90282FDF2CF46
:2055E000CBCF9091A902892F877F93FF88608093A90283FDE7CFC0CF0E94771D90910E0322
:20560000892F97FB87F9805880930E03B5CF80E00E94892AB1CF8953FBCF8D51F9CF80E05F
:20562000089580E008950C94112B8E518A3030F4E82FF0E0ED53FE4F8081089580E0089528
:20564000CF93C82F8091B9028130A1F08230A1F181117AC00E94D323823209F077C08C2F9C
:205660000E94112B81111BC08C2F0E94B02A8170CF9108950E94D323823289F38C2F0E9495
:20568000132B81110AC0C431A1F060F4CB3029F0C03169F782E08093B90281E0E8CF81E088
:2056A00090E0E5CFC93229F081E0C83301F380E0DECF1092B902FBCFCB3469F198F4C43253
:2056C00040F4CE3100F5C73061F1C43121F081E0CFCFC932E1F78091B802882381F01092F8
:2056E000B802F5CFC135A9F061E0C235A9F06AE0CE3469F78091B8020E94382AE8CF81E039
:205700008093B902B5CF8C2F0E94152B8093B802DECF61E0EFCF6AE08091B8020E94C02981
:20572000D6CF8EE18093200182E380931F018AE080931E0184E180931D0188E080931A01C1
:2057400088E280931901C3CF1092B90280E090CF8091DC020895CF93DF9300D00F92CDB7AF
:20576000DEB790911403943019F589836A837B8382E08093E9008FEF9091E800815095FD4B
:2057800006C095ED9A95F1F700008111F5CF8091E80085FF0DC050E040E063E070E0CE0158
:2057A00001960E94172E8091E8008E778093E8000F900F900F90DF91CF910895BC0184E007
:2057C0000C94AB2BBC0183E00C94AB2B22E02093E9002FEF3091E800215035FD06C035EDCD
:2057E0003A95F1F700002111F5CF2091E80025FF0BC050E040E066E070E00E94172E809196
:20580000E8008E778093E8000895CF93DF93D82FC92F80912B018823C1F180910E0387FFEE
:2058200034C060E282E08093E9008FEF9091E800815095FD06C095ED9A95F1F700008111F9
:20584000F5CF8091E80085FF1DC080912B0170E050E040E0811104C050E040E068E070E00F
:205860008D2F9C2F0E94172E8091E8008E778093E80080E2ED2FFC2FACEBB2E001900D92BF
:205880008A95E1F7DF91CF91089568E081E0CBCF80911303811109C00E949F2F0E94FC2FA2
:2058A0008091E20084608093E2000895109213030895089508950C9446262091BA022F5FE9
:2058C000822F62E30E949E32992319F02093BA0208951092BA028091BB028823F1F08091C6
:2058E00014038430C1F49091E9009F702091EC00822F817020FD80E8892B93E09093E90018
:205900009091EB0090FF04C09091EE0097FD08C08F708093E9001092BB0208951092F10033
:205920009091E80095FDFACF9091E80090FFF0CF9091E8009E779093E800EACF42E061EC5B
:2059400081E00E941B2F42E261EC82E00E941B2F42E261EC83E00C941B2F8091160389309A
:2059600089F148F4823009F49DC0833009F458C0813041F008958A3009F484C08B3009F46B
:205980006AC0089580911503813A09F048C08091E800877F8093E8008091190390911A03F6
:2059A000892B61F460E28CEB92E070E00E94662E8091E8008B778093E800089560E090E0EA
:2059C00080E0F3CF80911503813249F58091190390911A03029718F58091E800877F809368
:2059E000E8008091E80082FF16C09091F3008091F200029729F48091F1008B7F813021F4D0
:205A00008091F1008093DC028091E8008B778093E8000C944F2F809114038111E2CF089577
:205A200080911503813AD9F78091190390911A03892BA9F78091E800877F8093E8008091E8
:205A4000E80080FFFCCF80912B018093F1008091E8008E77DCCF80911503813201F7809145
:205A6000190390911A03892BD1F68091E800877F8093E8000E944F2F8091170380932B01CD
:205A80000C94771D80911503813249F68091E800877F8093E8000E944F2F8091180380935E
:205AA000DD02089580911503813A09F0B8CF8091E800877F8093E8008091E80080FFFCCFC9
:205AC0008091DD02C2CF84B7877F84BF0FB6F894A895809160008861809360001092600064
:205AE0000FBE80E890E00FB6F89480936100909361000FBE0E947C180E949F2F0E94FC2F78
:205B00008091E20084608093E20078940E9483320E94881881E291E00E94FB178091140364
:205B2000853039F00E9494180E9486180E948718F5CF0E94FD2580911203882379F30E9451
:205B40002E26882359F30E94012EE8CF0C94A82DFC01CB01DA012F2F332723303105D1F057
:205B600070F42130310509F447C02230310569F48BE590E028E137E02D933C9308952132D2
:205B80003105E9F02232310539F190E080E030E020E0F2CFCF019927E13059F0823091056F
:205BA00059F0E4E1F7E0892B81F7849190E09F01E3CFECEFF6E0F9CFECEEF6E0F6CF63307C
:205BC000710518F7880F991FFC01EA52FE4F2081318189E090E0D0CF63307105B0F6FB01F5
:205BE000EE0FFF1FE053FE4F2081318183539E4FFC01808190E0C0CF82E190E023E737E003
:205C0000BBCF80E189BD82E189BD09B400FEFDCF8091D8008F7D8093D8008091E000826070
:205C20008093E0008091E00081FDFCCF0895AF92BF92CF92DF92FF920F931F93CF93DF937D
:205C40006C01EB018A010E946E2FF82E811123C00115110539F0F80180819181C81BD90B5E
:205C6000C80ED91EB12CA12C2097A9F08091E80085FD22C08091E8008E778093E8000115F1
:205C80001105A1F0F80180819181A80EB91EB182A08285E0F82E8F2DDF91CF911F910F9108
:205CA000FF90DF90CF90BF90AF9008950E946E2F8823D1F2F82EEFCFF60181916F0180933F
:205CC000F1002197FFEFAF1ABF0ACECFFC01CB0120911B0330911C032617370790F00097F4
:205CE00029F42091E8002E772093E80040E0009751F4411108C08091E80082FF31C080E0CD
:205D00000895C901F3CF209114032223A9F12530A9F12091E80023FD2DC02091E80022FD66
:205D2000EACF2091E80020FFE2CF3091F3002091F200009719F02830310558F041E02830FB
:205D4000310509F040E02091E8002E772093E800CECF41914093F10001972F5F3F4FE9CF7C
:205D600080911403882341F0853041F08091E80083FFC1CF81E0089582E0089583E0089531
:205D8000FC01CB0120911B0330911C032617370790F0009729F42091E8002E772093E80003
:205DA00040E0009751F4411108C08091E80082FF32C080E00895C901F3CF209114032223CB
:205DC000B1F12530B1F12091E80023FD2EC02091E80022FDEACF2091E80020FFE2CF3091E8
:205DE000F3002091F200009719F02830310558F041E02830310509F040E02091E8002E7791
:205E00002093E800CECF44914093F100319601972F5F3F4FE8CF80911403882341F08530C6
:205E200041F08091E80083FFC0CF81E0089582E0089583E00895982F973028F08F70809372
:205E4000E90081E008959093E900242F762F50E0981731F07091EC002091ED005091F000FB
:205E600021FD02C09F5FE8CF3091EB003E7F3093EB003091ED003D7F3093ED003091EB00B0
:205E800031603093EB007093EC002093ED005093F0002091EE0027FDE5CF80E008958091DC
:205EA000150387FF13C08091E80082FF06C08091E8008B778093E80004C0809114038111BD
:205EC000F2CF0895809114038823D9F38091E80080FFF8CF8091E8008E77ECCF2091E40038
:205EE0003091E50095E6A9012091EC00822F817020FF06C08091E80080FF06C080E0089578
:205F00002091E80022FD1AC080911403882389F0853089F08091EB0085FD0FC02091E40093
:205F20003091E50042175307F9F29150E1F684E0089582E0089583E0089581E008950E94C5
:205F40000D300E941530E0EEF0E0808181608083E8EDF0E080818F77808319BCA7EDB0E0F2
:205F60008C918E7F8C9380818F7E80831092130308950F931F93CF93DF930E940D300E94C9
:205F80001530C8EDD0E088818F77888388818068888388818F7D888319BC109214031092F1
:205FA0001003109212031092110300EE10E0F80180818B7F808388818160888342E060E025
:205FC00080E00E941B2FE1EEF0E080818E7F8083E2EEF0E080818160808380818860808354
:205FE000F80180818E7F8083888180618883DF91CF911F910F910895E8EDF0E080818F7E32
:206000008083E7EDF0E080818160808384E082BF81E0809313030C94B92FE8EDF0E0808197
:206020008E7F80831092E20008951092DA001092E10008951F920F920FB60F9211242F93E4
:206040003F934F935F936F937F938F939F93AF93BF93EF93FF938091E10082FF0BC080913B
:20606000E20082FF07C08091E1008B7F8093E1000E945D2C8091DA0080FF19C08091D800AF
:2060800080FF15C08091DA008E7F8093DA008091D90080FF94C080E189BD82E189BD09B4FD
:2060A00000FEFDCF81E0809314030E94482C8091E10080FF19C08091E20080FF15C08091D3
:2060C000E2008E7F8093E2008091E20080618093E2008091D80080628093D80019BC85E023
:2060E000809314030E945A2C8091E10084FF29C08091E20084FF25C080E189BD82E189BD45
:2061000009B400FEFDCF8091D8008F7D8093D8008091E1008F7E8093E1008091E2008F7E25
:206120008093E2008091E20081608093E20080911003882309F449C084E0809314030E949C
:206140005B2C8091E10083FF29C08091E20083FF25C08091E100877F8093E10082E08093A0
:206160001403109210038091E1008E7F8093E1008091E2008E7F8093E2008091E200806197
:206180008093E20042E060E080E00E941B2F8091F00088608093F0000E94592CFF91EF9139
:2061A000BF91AF919F918F917F916F915F914F913F912F910F900FBE0F901F90189519BC53
:2061C000109214030E94562C72CF8091E30087FD02C081E0B2CF83E0B0CF1F920F920FB68C
:2061E0000F9211242F933F934F935F936F937F938F939F93AF93BF93CF93DF93EF93FF937D
:20620000D091E900DF708091EC00C82FC17080FDC0E81092E9008091F000877F8093F00006
:2062200078940E9431311092E9008091F00088608093F000CD2BCF70C093E900FF91EF9154
:20624000DF91CF91BF91AF919F918F917F916F915F914F913F912F910F900FBE0F901F9064
:2062600018951F93CF93DF93CDB7DEB7AA970FB6F894DEBF0FBECDBF85E193E0FC010196DD
:206280002091F100208323E08D319207B9F70E94AD2C8091E80083FF1EC180911503909190
:2062A00016039A3008F017C1E92FF0E0E155FB4C0C940233803899F0823809F00CC180911F
:2062C00019038F70873008F006C18093E9008091EB0085FB882780F91092E90006C080912B
:2062E000110390911203911182609091E800977F9093E8008093F1001092F1008091E80016
:206300008E77E5C0882309F4D3C0823009F0E3C0809117038111D6C0809119038F702FEFAD
:20632000280F263008F0D7C08093E9002091EB0020FFC8C0933031F48091EB008062809329
:20634000EB00C0C09091EB0090619093EB0021E030E001C0220F8A95EAF72093EA00109285
:20636000EA008091EB008860EACF8111B4C0109117031F778091E3008078812B8093E300B1
:206380008091E800877F8093E8000E944F2F8091E80080FFFCCF8091E30080688093E300CE
:2063A00082E0111183E08093140395C08058823008F091C080911703909118038C3D23E071
:2063C0009207A1F583E08A838AE289834FB7F894DE01139620E03EE051E2E32FF0E0509376
:2063E0005700E49120FF03C0E295EF703F5FEF708E2F90E0EA30C0F0C7968D939D932F5FEA
:20640000243159F74FBF8091E800877F8093E8006AE270E0CE0101960E94662E8091E8009E
:206420008B778093E80057C0C096E7CF6091190370911A03AE014F5F5F4F0E94A62DBC01D4
:20644000892B09F448C08091E800877F8093E80089819A810E94C02EE1CF8038E1F5809185
:20646000E800877F8093E800809110038093F10045CF811130C090911703923060F5809112
:20648000E800877F8093E800909310030E944F2F80911003882311F084E005C08091E300D0
:2064A00087FDFACF81E0809314030E949E2C13C080911703813079F481E0933009F080E0FF
:2064C000809312031092E9008091E800877F8093E8000E944F2F8091E80083FF0AC0809199
:2064E000E800877F8093E8008091EB0080628093EB00AA960FB6F894DEBF0FBECDBFDF91E0
:20650000CF911F910895CF93809114038823A1F0C091E900CF709091EC00892F817090FD4C
:2065200080E8C82B1092E9008091E80083FD0E943131CF70C093E900CF910895991B79E073
:2065400004C0991F961708F0961B881F7A95C9F78095089587FB082E062687FD819567FD5F
:2065600061950E949E320EF4919507FC81950895AA1BBB1B51E107C0AA1FBB1FA617B70723
:2065800010F0A61BB70B881F991F5A95A9F780959095BC01CD01089597FB072E16F40094C3
:2065A00007D077FD09D00E94B83207FC05D03EF4909581959F4F0895709561957F4F0895F5
:2065C000A1E21A2EAA1BBB1BFD010DC0AA1FBB1FEE1FFF1FA217B307E407F50720F0A21B95
:2065E000B30BE40BF50B661F771F881F991F1A9469F760957095809590959B01AC01BD012B
:20660000CF010895EE0FFF1F0590F491E02D09940E941033332312F48A1B9B0B0C942133AE
:20662000A29FB001B39FC001A39F700D811D1124911DB29F700D811D1124911D08950E9487
:206640001033B7FF0895821B930B08950E941033A59F900DB49F900DA49F800D911D112463
:206660000895B7FF0C9426330E942633821B930B0895CF92DF92EF92FF92CF93DF93CDB7BF
:20668000DEB72A970FB6F894DEBF0FBECDBF89879A87A985BA852D913D914D915C912983BC
:2066A0003A834B835C83232B242B252B41F424E239ED4BE557E029833A834B835C836981BB
:2066C0007A818B819C812DE133EF41E050E00E940F3469017A01A7EAB1E49B01AC010E943A
:2066E000263369837A838B839C83ACEEB4EFA70196010E9434339B01AC0189819A81AB810C
:20670000BC81820F931FA41FB51FB7FF03C00197A109B048E985FA8580839183A283B38350
:206720009F772A960FB6F894DEBF0FBECDBFDF91CF91FF90EF90DF90CF9008950E943933E5
:20674000089580E091E00E9439330895B0E0A0E08093000190930101A0930201B09303015A
:206760000895FB01DC0102C005900D9241505040D8F70895FC014150504030F00190061635
:20678000D1F73197CF010895882799270895F999FECF92BD81BDF89A992780B50895A6E159
:2067A000B0E044E050E00C940134A8E1B0E042E050E00C940134262FF999FECF92BD81BD9F
:2067C000F89A019700B4021639F01FBA20BD0FB6F894FA9AF99A0FBE08950396272F0E9471
:2067E000DC330E94DB33252F0E94DC33242F0C94DC330196272F0E94DC330C94DB33DC01AA
:20680000CB01FC01F999FECF06C0F2BDE1BDF89A319600B40D9241505040B8F70895052EF1
:2068200097FB1EF400940E94263457FD07D00E94E03207FC03D04EF40C9426345095409579
:20684000309521953F4F4F4F5F4F089590958095709561957F4F8F4F9F4F0895F894FFCF80
:2068600076127E1285128A128F12941299129E12A312A812AD12B212B612BB12BE12C11201
:20688000C412C712C912CC12C514CB14CF14DD14E114E514E914EF14F714FB14FF140315D1
:2068A0000F15131517151B1521153F152915D314D91407150B15F3142515351548154C150F
:2068C000BC1ABC1A1E1B1E1B731B8F1BEC1AEC1ACF1B821C931C931CF41CEC1AEC1AFD1C3B
:2068E000C72ABE2ACA2ABC2A0F2B0F2BBC2A0F2B0F2BE62A0F2BF12AFC2A0F2B0F2B0F2BDE
:206900000F2BBC2A0F2B0F2BBC2A0F2BD82A0F2B0F2B0D2B0D2B0D2B0D2B0D2B0D2B0D2BC5
:206920000D2B0D2B072B0F2BC72ABA2A0F2B0F2B0F2B0F2B0F2B0F2B0F2B0F2B0F2B0F2B62
